{
  "_format": "hh-sol-artifact-1",
  "contractName": "AuctionHouse",
  "sourceName": "contracts/AuctionHouse.sol",
  "abi": [
    {
      "inputs": [
        {
          "internalType": "address",
          "name": "_weth",
          "type": "address"
        }
      ],
      "stateMutability": "nonpayable",
      "type": "constructor"
    },
    {
      "inputs": [],
      "name": "AccessControlBadConfirmation",
      "type": "error"
    },
    {
      "inputs": [
        {
          "internalType": "address",
          "name": "account",
          "type": "address"
        },
        {
          "internalType": "bytes32",
          "name": "neededRole",
          "type": "bytes32"
        }
      ],
      "name": "AccessControlUnauthorizedAccount",
      "type": "error"
    },
    {
      "inputs": [
        {
          "internalType": "address",
          "name": "target",
          "type": "address"
        }
      ],
      "name": "AddressEmptyCode",
      "type": "error"
    },
    {
      "inputs": [
        {
          "internalType": "address",
          "name": "account",
          "type": "address"
        }
      ],
      "name": "AddressInsufficientBalance",
      "type": "error"
    },
    {
      "inputs": [],
      "name": "EnforcedPause",
      "type": "error"
    },
    {
      "inputs": [],
      "name": "ExpectedPause",
      "type": "error"
    },
    {
      "inputs": [],
      "name": "FailedInnerCall",
      "type": "error"
    },
    {
      "inputs": [],
      "name": "MathOverflowedMulDiv",
      "type": "error"
    },
    {
      "inputs": [],
      "name": "ReentrancyGuardReentrantCall",
      "type": "error"
    },
    {
      "inputs": [
        {
          "internalType": "address",
          "name": "token",
          "type": "address"
        }
      ],
      "name": "SafeERC20FailedOperation",
      "type": "error"
    },
    {
      "anonymous": false,
      "inputs": [
        {
          "indexed": true,
          "internalType": "uint256",
          "name": "auctionId",
          "type": "uint256"
        },
        {
          "indexed": true,
          "internalType": "uint256",
          "name": "tokenId",
          "type": "uint256"
        },
        {
          "indexed": false,
          "internalType": "address",
          "name": "sender",
          "type": "address"
        },
        {
          "indexed": false,
          "internalType": "uint256",
          "name": "value",
          "type": "uint256"
        },
        {
          "indexed": false,
          "internalType": "bool",
          "name": "firstBid",
          "type": "bool"
        },
        {
          "indexed": false,
          "internalType": "bool",
          "name": "extended",
          "type": "bool"
        }
      ],
      "name": "AuctionBid",
      "type": "event"
    },
    {
      "anonymous": false,
      "inputs": [
        {
          "indexed": true,
          "internalType": "uint256",
          "name": "auctionId",
          "type": "uint256"
        },
        {
          "indexed": true,
          "internalType": "uint256",
          "name": "tokenId",
          "type": "uint256"
        },
        {
          "indexed": false,
          "internalType": "uint256",
          "name": "duration",
          "type": "uint256"
        },
        {
          "indexed": false,
          "internalType": "uint256",
          "name": "reservePrice",
          "type": "uint256"
        },
        {
          "indexed": false,
          "internalType": "address",
          "name": "tokenOwner",
          "type": "address"
        }
      ],
      "name": "AuctionCreated",
      "type": "event"
    },
    {
      "anonymous": false,
      "inputs": [
        {
          "indexed": true,
          "internalType": "uint256",
          "name": "auctionId",
          "type": "uint256"
        },
        {
          "indexed": true,
          "internalType": "uint256",
          "name": "tokenId",
          "type": "uint256"
        },
        {
          "indexed": false,
          "internalType": "uint256",
          "name": "duration",
          "type": "uint256"
        }
      ],
      "name": "AuctionDurationExtended",
      "type": "event"
    },
    {
      "anonymous": false,
      "inputs": [
        {
          "indexed": false,
          "internalType": "uint256",
          "name": "auctionDuration",
          "type": "uint256"
        }
      ],
      "name": "AuctionDurationUpdated",
      "type": "event"
    },
    {
      "anonymous": false,
      "inputs": [
        {
          "indexed": true,
          "internalType": "uint256",
          "name": "auctionId",
          "type": "uint256"
        },
        {
          "indexed": true,
          "internalType": "uint256",
          "name": "tokenId",
          "type": "uint256"
        },
        {
          "indexed": false,
          "internalType": "address",
          "name": "tokenOwner",
          "type": "address"
        },
        {
          "indexed": false,
          "internalType": "address",
          "name": "winner",
          "type": "address"
        },
        {
          "indexed": false,
          "internalType": "uint256",
          "name": "amount",
          "type": "uint256"
        }
      ],
      "name": "AuctionEnded",
      "type": "event"
    },
    {
      "anonymous": false,
      "inputs": [
        {
          "indexed": false,
          "internalType": "address",
          "name": "account",
          "type": "address"
        }
      ],
      "name": "Paused",
      "type": "event"
    },
    {
      "anonymous": false,
      "inputs": [
        {
          "indexed": true,
          "internalType": "bytes32",
          "name": "role",
          "type": "bytes32"
        },
        {
          "indexed": true,
          "internalType": "bytes32",
          "name": "previousAdminRole",
          "type": "bytes32"
        },
        {
          "indexed": true,
          "internalType": "bytes32",
          "name": "newAdminRole",
          "type": "bytes32"
        }
      ],
      "name": "RoleAdminChanged",
      "type": "event"
    },
    {
      "anonymous": false,
      "inputs": [
        {
          "indexed": true,
          "internalType": "bytes32",
          "name": "role",
          "type": "bytes32"
        },
        {
          "indexed": true,
          "internalType": "address",
          "name": "account",
          "type": "address"
        },
        {
          "indexed": true,
          "internalType": "address",
          "name": "sender",
          "type": "address"
        }
      ],
      "name": "RoleGranted",
      "type": "event"
    },
    {
      "anonymous": false,
      "inputs": [
        {
          "indexed": true,
          "internalType": "bytes32",
          "name": "role",
          "type": "bytes32"
        },
        {
          "indexed": true,
          "internalType": "address",
          "name": "account",
          "type": "address"
        },
        {
          "indexed": true,
          "internalType": "address",
          "name": "sender",
          "type": "address"
        }
      ],
      "name": "RoleRevoked",
      "type": "event"
    },
    {
      "anonymous": false,
      "inputs": [
        {
          "indexed": false,
          "internalType": "uint256",
          "name": "timeBuffer",
          "type": "uint256"
        }
      ],
      "name": "TimeBufferUpdated",
      "type": "event"
    },
    {
      "anonymous": false,
      "inputs": [
        {
          "indexed": false,
          "internalType": "contract IERC721Mintable",
          "name": "tokenContract",
          "type": "address"
        }
      ],
      "name": "TokenContractUpdated",
      "type": "event"
    },
    {
      "anonymous": false,
      "inputs": [
        {
          "indexed": false,
          "internalType": "address",
          "name": "account",
          "type": "address"
        }
      ],
      "name": "Unpaused",
      "type": "event"
    },
    {
      "stateMutability": "payable",
      "type": "fallback"
    },
    {
      "inputs": [],
      "name": "DEFAULT_ADMIN_ROLE",
      "outputs": [
        {
          "internalType": "bytes32",
          "name": "",
          "type": "bytes32"
        }
      ],
      "stateMutability": "view",
      "type": "function"
    },
    {
      "inputs": [
        {
          "internalType": "uint256",
          "name": "auctionId",
          "type": "uint256"
        }
      ],
      "name": "auction",
      "outputs": [
        {
          "internalType": "string",
          "name": "",
          "type": "string"
        }
      ],
      "stateMutability": "view",
      "type": "function"
    },
    {
      "inputs": [
        {
          "internalType": "uint256",
          "name": "tokenId",
          "type": "uint256"
        }
      ],
      "name": "auctionIdForTokenId",
      "outputs": [
        {
          "internalType": "uint256",
          "name": "",
          "type": "uint256"
        }
      ],
      "stateMutability": "view",
      "type": "function"
    },
    {
      "inputs": [
        {
          "internalType": "uint256",
          "name": "auctionId",
          "type": "uint256"
        },
        {
          "internalType": "uint256",
          "name": "amount",
          "type": "uint256"
        }
      ],
      "name": "createBid",
      "outputs": [],
      "stateMutability": "payable",
      "type": "function"
    },
    {
      "inputs": [
        {
          "internalType": "uint256",
          "name": "auctionId",
          "type": "uint256"
        }
      ],
      "name": "endCurrentAndCreateNewAuction",
      "outputs": [],
      "stateMutability": "nonpayable",
      "type": "function"
    },
    {
      "inputs": [],
      "name": "getActiveAuctions",
      "outputs": [
        {
          "internalType": "uint256[]",
          "name": "",
          "type": "uint256[]"
        }
      ],
      "stateMutability": "view",
      "type": "function"
    },
    {
      "inputs": [
        {
          "internalType": "bytes32",
          "name": "role",
          "type": "bytes32"
        }
      ],
      "name": "getRoleAdmin",
      "outputs": [
        {
          "internalType": "bytes32",
          "name": "",
          "type": "bytes32"
        }
      ],
      "stateMutability": "view",
      "type": "function"
    },
    {
      "inputs": [
        {
          "internalType": "bytes32",
          "name": "role",
          "type": "bytes32"
        },
        {
          "internalType": "address",
          "name": "account",
          "type": "address"
        }
      ],
      "name": "grantRole",
      "outputs": [],
      "stateMutability": "nonpayable",
      "type": "function"
    },
    {
      "inputs": [
        {
          "internalType": "bytes32",
          "name": "role",
          "type": "bytes32"
        },
        {
          "internalType": "address",
          "name": "account",
          "type": "address"
        }
      ],
      "name": "hasRole",
      "outputs": [
        {
          "internalType": "bool",
          "name": "",
          "type": "bool"
        }
      ],
      "stateMutability": "view",
      "type": "function"
    },
    {
      "inputs": [],
      "name": "initialize",
      "outputs": [],
      "stateMutability": "nonpayable",
      "type": "function"
    },
    {
      "inputs": [],
      "name": "maxAuctions",
      "outputs": [
        {
          "internalType": "uint8",
          "name": "",
          "type": "uint8"
        }
      ],
      "stateMutability": "view",
      "type": "function"
    },
    {
      "inputs": [],
      "name": "minBidIncrementPercentage",
      "outputs": [
        {
          "internalType": "uint8",
          "name": "",
          "type": "uint8"
        }
      ],
      "stateMutability": "view",
      "type": "function"
    },
    {
      "inputs": [
        {
          "internalType": "address",
          "name": "",
          "type": "address"
        },
        {
          "internalType": "address",
          "name": "",
          "type": "address"
        },
        {
          "internalType": "uint256",
          "name": "",
          "type": "uint256"
        },
        {
          "internalType": "bytes",
          "name": "",
          "type": "bytes"
        }
      ],
      "name": "onERC721Received",
      "outputs": [
        {
          "internalType": "bytes4",
          "name": "",
          "type": "bytes4"
        }
      ],
      "stateMutability": "nonpayable",
      "type": "function"
    },
    {
      "inputs": [],
      "name": "paused",
      "outputs": [
        {
          "internalType": "bool",
          "name": "",
          "type": "bool"
        }
      ],
      "stateMutability": "view",
      "type": "function"
    },
    {
      "inputs": [
        {
          "internalType": "bytes32",
          "name": "role",
          "type": "bytes32"
        },
        {
          "internalType": "address",
          "name": "callerConfirmation",
          "type": "address"
        }
      ],
      "name": "renounceRole",
      "outputs": [],
      "stateMutability": "nonpayable",
      "type": "function"
    },
    {
      "inputs": [
        {
          "internalType": "bytes32",
          "name": "role",
          "type": "bytes32"
        },
        {
          "internalType": "address",
          "name": "account",
          "type": "address"
        }
      ],
      "name": "revokeRole",
      "outputs": [],
      "stateMutability": "nonpayable",
      "type": "function"
    },
    {
      "inputs": [
        {
          "internalType": "uint256",
          "name": "_auctionDuration",
          "type": "uint256"
        }
      ],
      "name": "setAuctionDuration",
      "outputs": [],
      "stateMutability": "nonpayable",
      "type": "function"
    },
    {
      "inputs": [
        {
          "internalType": "uint256",
          "name": "_timeBuffer",
          "type": "uint256"
        }
      ],
      "name": "setTimeBuffer",
      "outputs": [],
      "stateMutability": "nonpayable",
      "type": "function"
    },
    {
      "inputs": [
        {
          "internalType": "contract IERC721Mintable",
          "name": "tokenContract",
          "type": "address"
        }
      ],
      "name": "setTokenContract",
      "outputs": [],
      "stateMutability": "nonpayable",
      "type": "function"
    },
    {
      "inputs": [
        {
          "internalType": "bytes4",
          "name": "interfaceId",
          "type": "bytes4"
        }
      ],
      "name": "supportsInterface",
      "outputs": [
        {
          "internalType": "bool",
          "name": "",
          "type": "bool"
        }
      ],
      "stateMutability": "view",
      "type": "function"
    },
    {
      "inputs": [],
      "name": "timeBuffer",
      "outputs": [
        {
          "internalType": "uint256",
          "name": "",
          "type": "uint256"
        }
      ],
      "stateMutability": "view",
      "type": "function"
    },
    {
      "inputs": [],
      "name": "wethAddress",
      "outputs": [
        {
          "internalType": "address",
          "name": "",
          "type": "address"
        }
      ],
      "stateMutability": "view",
      "type": "function"
    },
    {
      "stateMutability": "payable",
      "type": "receive"
    }
  ],
  "bytecode": "0x60803462000161576001600160401b0390601f6200228e38819003918201601f19168301918483118484101762000166578084926020946040528339810103126200016157516001600160a01b0381168103620001615760016000818155815460ff199081168355600b805490911690556005805461038460045562093a8060095561ff01600160b01b03191660109490941b62010000600160b01b031693909317831761ff00191661030017909255662386f26fc10000600a55604051909260208201908111828210176200014d5790829160405252600754816007558062000109575b600782526001600355620000f8336200017c565b5060405161207f90816200020f8239f35b600782527fa66cc928b5edb82af9bd49922954155ab7b0942694bea4ce44661d9a8736c688908101905b818110620001425750620000e4565b828155830162000133565b634e487b7160e01b83526041600452602483fd5b600080fd5b634e487b7160e01b600052604160045260246000fd5b6001600160a01b031660008181527fac33ff75c19e70fe83507db0d683fd3465c996598dc972688b7ace676c89077b602052604081205490919060ff166200020a5781805260026020526040822081835260205260408220600160ff1982541617905533917f2f8788117e7eff1d82e926ec794901d17c78024a50270940304540a733656f0d8180a4600190565b509056fe6040608081526004908136101561001d575b5050361561001b57005b005b600091823560e01c80630156123f14610fac57806301ffc9a714610f0c5780631200617f14610b47578063150b7a0214610a90578063248a9ca314610a665780632f2ff15d14610a3d57806336568abe146109d05780634f0e0ef3146109985780635c975abb1461097457806369a6e9c61461094f5780637120334b146109025780638129fc1c1461082057806391d14854146107ce578063a217fddf146107b3578063a497e67414610766578063b296024d14610740578063b7751c71146102ed578063bbcd5bbe14610258578063cf44b5d5146101a5578063d547741f14610166578063d9f63c481461013c5763ec91f2a41461011c5750610011565b3461013857826003193601126101385760209250549051908152f35b8280fd5b509134610163576020600319360112610163575061015c602092356111de565b9051908152f35b80fd5b5090346101385780600319360112610138576101a1913561019c600161018a611069565b93838752600260205286200154611ab8565b611b6c565b5080f35b8284346101635780600319360112610163579080519182906007549182855260208095018093600784527fa66cc928b5edb82af9bd49922954155ab7b0942694bea4ce44661d9a8736c68890845b81811061024457505050816102099103826110d7565b83519485948186019282875251809352850193925b82811061022d57505050500390f35b83518552869550938101939281019260010161021e565b8254845292880192600192830192016101f3565b5034610138576020600319360112610138573573ffffffffffffffffffffffffffffffffffffffff8116809103610138577f23d5823548e4652c04b1d029323232659612a32681d27872dd94b8d6b97ce6b1916020916102b6611a47565b8460085492827fffffffffffffffffffffffff0000000000000000000000000000000000000000851617600855519216178152a180f35b50816003193601126101385780359060243561033761033284600052600660205273ffffffffffffffffffffffffffffffffffffffff60056040600020015416151590565b611116565b61033f611236565b8285526006916020918383528587209073ffffffffffffffffffffffffffffffffffffffff80868401541692848101548015918215610728575b5050156106e6578689528585526003888a20015482106106a4578689528585526103b86001898b2001546103b260ff6005541682611bf1565b90611161565b821061063d578689528585528789208481015461061d57508689528585524284898b2001555b8134036105b55760055460101c1688813b15610163578291858a51809481937fd0e30db00000000000000000000000000000000000000000000000000000000083525af180156105ab57610598575b50859081895285855287892093816001860155868501337fffffffffffffffffffffffff00000000000000000000000000000000000000008254161790556104896104828b9660028482015491015490611161565b4290611184565b815480911061052a575b505060807f8ce50868e1c3ceb918f9d6746cfa9074a979439ed0bb4060c6a86ba9b92c006291838b52878752898b2054948a519133835288830152158a8201528515156060820152a36104e9575b846001815580f35b7f0e7fbdf616af9cd1fb7c231de425c040aab35e434b6f4ac091b8c7c1aa044c8191838652815283852093600285549501549051908152a3388080806104e1565b6103b29192955061055e938b528787526105588a8c206105536002820154809642930154611161565b611184565b90611184565b85885284845260028789200155847f8ce50868e1c3ceb918f9d6746cfa9074a979439ed0bb4060c6a86ba9b92c0062608060019491610493565b976105a48792996110c3565b979061042d565b88513d8b823e3d90fd5b608484868a519162461bcd60e51b8352820152603260248201527f53656e74204554482056616c756520646f6573206e6f74206d6174636820737060448201527f656369666965642062696420616d6f756e7400000000000000000000000000006064820152fd5b83610629575b506103de565b600161063791015484611c82565b38610623565b608484898781519262461bcd60e51b845283015260248201527f4d7573742073656e64206d6f7265207468616e206c617374206269642062792060448201527f6d696e426964496e6372656d656e7450657263656e7461676520616d6f756e746064820152fd5b606484868a519162461bcd60e51b8352820152601f60248201527f4d7573742073656e64206174206c6561737420726573657276655072696365006044820152fd5b606484868a519162461bcd60e51b8352820152600f60248201527f41756374696f6e206578706972656400000000000000000000000000000000006044820152fd5b61073792506002015490611161565b42103880610379565b50503461076257816003193601126107625760209060ff600554169051908152f35b5080fd5b5034610138576020600319360112610138577faab6389d8f1c16ba1deb6e9831f5c5442cf4fcf99bf5bfa867460be408a911189160209135906107a7611a47565b8160095551908152a180f35b50503461076257816003193601126107625751908152602090f35b50346101385781600319360112610138578160209360ff926107ee611069565b903582526002865273ffffffffffffffffffffffffffffffffffffffff83832091168252855220541690519015158152f35b5034610138578260031936011261013857610839611236565b610841611a47565b600b549060ff9260ff831661089957505060ff19166001908117600b5582815b61086e575b836001815580f35b8260055460081c168382161015610894578282809261088b6114b1565b50011690610861565b610866565b906020608492519162461bcd60e51b8352820152603a60248201527f307841756374696f6e486f7573653a2061756374696f6e20686f75736520686160448201527f73206265656e20696e697469616c697a656420616c72656164790000000000006064820152fd5b50903461013857602060031936011261013857816020917f51c05df9b26498d8aacb73705841d08155abf0e88e37a735871e545bc27b38bb93358092610946611a47565b5551908152a180f35b50503461076257816003193601126107625760209060ff60055460081c169051908152f35b50503461076257816003193601126107625760209060ff6001541690519015158152f35b50503461076257816003193601126107625760209073ffffffffffffffffffffffffffffffffffffffff60055460101c169051908152f35b509190346107625780600319360112610762576109eb611069565b903373ffffffffffffffffffffffffffffffffffffffff831603610a1557506101a1919235611b6c565b8390517f6697b232000000000000000000000000000000000000000000000000000000008152fd5b5090346101385780600319360112610138576101a19135610a61600161018a611069565b611ade565b50346101385760206003193601126101385781602093600192358152600285522001549051908152f35b50913461016357608060031936011261016357823573ffffffffffffffffffffffffffffffffffffffff81160361016357610ac9611069565b506064359267ffffffffffffffff8411610762573660238501121561076257830135610af4816110fa565b93610b01845195866110d7565b8185523660248383010111610138579060209481602487940184830137010152517f150b7a02000000000000000000000000000000000000000000000000000000008152f35b509134610163576020806003193601126107625782843592610b8f84600052600660205273ffffffffffffffffffffffffffffffffffffffff60056040600020015416151590565b610b9890611116565b838152600683522091835194610bad86611091565b83548652600184015491838701928352600285015494868801958652600381015492606089019384528101546080890190815273ffffffffffffffffffffffffffffffffffffffff8080806005860154169460a08d0195865260060154169460c08c01958652610c1c90611731565b9a51610c2790611731565b9651610c3290611731565b9851610c3d90611731565b9551610c4890611731565b9251610c5390611731565b935116610c5f906118b7565b935116610c6b906118b7565b9388519788968888019b7f7b000000000000000000000000000000000000000000000000000000000000008d52602189017f2261756374696f6e4964223a20220000000000000000000000000000000000009052805190818b602f8c01920191610cd492611046565b8801602f81017f222c2022746f6b656e4964223a202200000000000000000000000000000000009052815191828b603e8401920191610d1292611046565b01603e81017f222c2022616d6f756e74223a20220000000000000000000000000000000000009052815191828a604c8401920191610d4f92611046565b01604c81017f222c20226475726174696f6e223a20220000000000000000000000000000000090528151918289605c8401920191610d8c92611046565b01605c81017f222c2022726573657276655072696365223a20220000000000000000000000009052815191828860708401920191610dc992611046565b01607081017f222c2022666972737442696454696d65223a20220000000000000000000000009052815191828760848401920191610e0692611046565b01608481017f222c2022746f6b656e4f776e6572223a202200000000000000000000000000009052815191828660968401920191610e4392611046565b01609681017f222c2022626964646572223a20220000000000000000000000000000000000009052815191828560a48401920191610e8092611046565b0160a481017f2200000000000000000000000000000000000000000000000000000000000000905260a581017f7d0000000000000000000000000000000000000000000000000000000000000090520360868101835260a601610ee390836110d7565b825193849282845251809284015281848401610efe92611046565b601f01601f19168101030190f35b50346101385760206003193601126101385735907fffffffff00000000000000000000000000000000000000000000000000000000821680920361013857602092507f7965db0b000000000000000000000000000000000000000000000000000000008214918215610f82575b50519015158152f35b7f01ffc9a70000000000000000000000000000000000000000000000000000000014915038610f79565b503461013857602060031936011261013857803591610fc9611236565b60ff6001541661102057836110108461100b61033282600052600660205273ffffffffffffffffffffffffffffffffffffffff60056040600020015416151590565b611271565b6110186114b1565b506001815580f35b517fd93c0665000000000000000000000000000000000000000000000000000000008152fd5b60005b8381106110595750506000910152565b8181015183820152602001611049565b6024359073ffffffffffffffffffffffffffffffffffffffff8216820361108c57565b600080fd5b60e0810190811067ffffffffffffffff8211176110ad57604052565b634e487b7160e01b600052604160045260246000fd5b67ffffffffffffffff81116110ad57604052565b90601f601f19910116810190811067ffffffffffffffff8211176110ad57604052565b67ffffffffffffffff81116110ad57601f01601f191660200190565b1561111d57565b606460405162461bcd60e51b815260206004820152601560248201527f41756374696f6e20646f65736e277420657869737400000000000000000000006044820152fd5b9190820180921161116e57565b634e487b7160e01b600052601160045260246000fd5b9190820391821161116e57565b6007548110156111c85760076000527fa66cc928b5edb82af9bd49922954155ab7b0942694bea4ce44661d9a8736c6880190600090565b634e487b7160e01b600052603260045260246000fd5b6007549060005b8281106111f457505050600090565b6111fd81611191565b9054600391821b1c6000526006602052826040600020541461122257506001016111e5565b925061122e9150611191565b9054911b1c90565b600260005414611247576002600055565b60046040517f3ee5aeb5000000000000000000000000000000000000000000000000000000008152fd5b6000908082526006602092818452604090600482822001541561146e578381528285526112aa8282206002600482015491015490611161565b421061142b5783815282855281812094600186015473ffffffffffffffffffffffffffffffffffffffff968760085416888783015416915491813b156114275786517f42842e0e00000000000000000000000000000000000000000000000000000000815230600482015273ffffffffffffffffffffffffffffffffffffffff919091166024820152604481019290925284908290606490829084905af19081611414575b5061137b57508482528390522090810154600190910154611379936113749216611c82565b611ea4565b565b9561140c61137997857f38db19f068f93273d85cd20e1d053f988c92771a90b7055a5d5cbeb9b6e9091895888a98968983528181526113c285886005878720015416611c82565b898352522092835497816005860154169401541693519384938460409194939294606082019573ffffffffffffffffffffffffffffffffffffffff80921683521660208201520152565b0390a3611ea4565b611420909491946110c3565b923861134f565b8580fd5b60648583519062461bcd60e51b82526004820152601860248201527f41756374696f6e206861736e277420636f6d706c6574656400000000000000006044820152fd5b60648583519062461bcd60e51b82526004820152601460248201527f41756374696f6e206861736e277420626567756e0000000000000000000000006044820152fd5b60075460ff60055460081c16106116c75773ffffffffffffffffffffffffffffffffffffffff806008541660408051907f40d097c30000000000000000000000000000000000000000000000000000000082523060048301526020908183602481600080985af19283156116bd57849361168a575b506003549460001986146116765785927ffe21114808b55d6a54bec91c46a20e8dfe7f033edf3f058a5012a829d8d0e3ca928487606094600183016003556006600954600a549086519161157983611091565b8c8352888301918683528884019081528a840191825260808401928784528960a0860198308a5260c087019a818c528152878d5220945185555160018501555160028401555160038301555160048201558260058201945116937fffffffffffffffffffffffff00000000000000000000000000000000000000009485825416179055019251169082541617905560095491600a549082519384528301523090820152a3600754906801000000000000000082101561166257508161164782600161165f9401600755611191565b90919060001983549160031b92831b921b1916179055565b90565b80634e487b7160e01b602492526041600452fd5b602485634e487b7160e01b81526011600452fd5b9092508181813d83116116b6575b6116a281836110d7565b810103126116b257519138611526565b8380fd5b503d611698565b81513d86823e3d90fd5b608460405162461bcd60e51b815260206004820152602760248201527f307841756374696f6e486f7573653a206d61782e2061756374696f6e7320657860448201527f6365656465642e000000000000000000000000000000000000000000000000006064820152fd5b806000917a184f03e93ff9f4daa797ed6e38ed64bf6a1f01000000000000000080821015611898575b506d04ee2d6d415b85acef810000000080831015611889575b50662386f26fc100008083101561187a575b506305f5e1008083101561186b575b506127108083101561185c575b50606482101561184c575b600a80921015611842575b6001908160216001860195601f196117e76117d1896110fa565b986117df6040519a8b6110d7565b808a526110fa565b01366020890137860101905b6117ff575b5050505090565b600019849101917f30313233343536373839616263646566000000000000000000000000000000008282061a83530491821561183d579190826117f3565b6117f8565b91600101916117b7565b91906064600291049101916117ac565b600491939204910191386117a1565b60089193920491019138611794565b60109193920491019138611785565b60209193920491019138611773565b60409350810491503861175a565b9081518110156111c8570160200190565b6040805167ffffffffffffffff9273ffffffffffffffffffffffffffffffffffffffff169190808201848111828210176110ad578252601081526020917f303132333435363738396162636465660000000000000000000000000000000060208301528051946060860190868210908211176110ad578152602a855260208501903682378451156111c85760309053835192600193600110156111c8576078602186015360005b6014811061196e57505050505090565b600c810180821161116e57848110156111c85782901a60047fff00000000000000000000000000000000000000000000000000000000000000600f816119b885851c8316896118a6565b511693858a1b94600290878704821488151715611a3257868201809211611a32576119ed6119f59493928e9260001a926118a6565b5316876118a6565b5116906003928301809311611a1d575090611a1687939260001a91896118a6565b530161195e565b601190634e487b7160e01b6000525260246000fd5b601186634e487b7160e01b6000525260246000fd5b3360009081527fac33ff75c19e70fe83507db0d683fd3465c996598dc972688b7ace676c89077b602052604081205460ff1615611a815750565b604490604051907fe2517d3f0000000000000000000000000000000000000000000000000000000082523360048301526024820152fd5b80600052600260205260406000203360005260205260ff6040600020541615611a815750565b90600091808352600260205273ffffffffffffffffffffffffffffffffffffffff6040842092169182845260205260ff60408420541615600014611b675780835260026020526040832082845260205260408320600160ff198254161790557f2f8788117e7eff1d82e926ec794901d17c78024a50270940304540a733656f0d339380a4600190565b505090565b90600091808352600260205273ffffffffffffffffffffffffffffffffffffffff6040842092169182845260205260ff604084205416600014611b67578083526002602052604083208284526020526040832060ff1981541690557ff6391f5c32d9c69d2a47ea670b442974b53935d1edc7fd64eb21e047a839171b339380a4600190565b8181029060001983820990828083109203918083039214611c78578160641115611c4e577f5c28f5c28f5c28f5c28f5c28f5c28f5c28f5c28f5c28f5c28f5c28f5c28f5c29936064910990828211900360fe1b910360021c170290565b60046040517f227bc153000000000000000000000000000000000000000000000000000000008152fd5b5050606491500490565b60055460101c73ffffffffffffffffffffffffffffffffffffffff90811691600091833b1561013857828060409560248751809481937f2e1a7d4d0000000000000000000000000000000000000000000000000000000083528b60048401525af18015611e9a57611e87575b50835167ffffffffffffffff9060208101828111828210176110ad57858181809481948b525289875af1611d20611f79565b5015611d2f575b505050505050565b8160055460101c16803b15611e835784879160048851809481937fd0e30db00000000000000000000000000000000000000000000000000000000083525af18015611e7957908591611e65575b50508160055460101c169585519260208401947fa9059cbb0000000000000000000000000000000000000000000000000000000086521660248401526044830152604482526080820190828210908211176110ad57845251611def918391829182885af1611de8611f79565b9085611fa9565b908151918215159283611e3d575b505050611e0d5780808080611d27565b6024925051907f5274afe70000000000000000000000000000000000000000000000000000000082526004820152fd5b8192935090602091810103126107625760200151908115918215036101635750388080611dfd565b611e6e906110c3565b6116b2578338611d7c565b86513d87823e3d90fd5b8480fd5b611e93909391936110c3565b9138611cee565b85513d86823e3d90fd5b8060005b6007805480831015611f7057611ebd83611191565b949054600395861b1c14611ed8575083925050600101611ea8565b6000199291929182820191821161116e57611647611ef8611f0493611191565b905490871b1c91611191565b81548015611f5a57810192611f1884611191565b81939154921b1b19169055555b600052600660205260006006604082208281558260018201558260028201558260038201558260048201558260058201550155565b634e487b7160e01b600052603160045260246000fd5b50505050611f25565b3d15611fa4573d90611f8a826110fa565b91611f9860405193846110d7565b82523d6000602084013e565b606090565b90611fe85750805115611fbe57805190602001fd5b60046040517f1425ea42000000000000000000000000000000000000000000000000000000008152fd5b81511580612040575b611ff9575090565b60249073ffffffffffffffffffffffffffffffffffffffff604051917f9996b315000000000000000000000000000000000000000000000000000000008352166004820152fd5b50803b15611ff156fea2646970667358221220610e08d57ecfe25653237f85b2c0726dbcffdd132238acc8dc454a7cbf9a0ea064736f6c63430008180033",
  "linkReferences": {},
  "deployedLinkReferences": {}
}