{
  "_format": "hh-sol-artifact-1",
  "contractName": "GoldMine",
  "sourceName": "contracts/GoldMine.sol",
  "abi": [
    {
      "inputs": [
        {
          "internalType": "address",
          "name": "sender",
          "type": "address"
        },
        {
          "internalType": "uint256",
          "name": "tokenId",
          "type": "uint256"
        },
        {
          "internalType": "address",
          "name": "owner",
          "type": "address"
        }
      ],
      "name": "ERC721IncorrectOwner",
      "type": "error"
    },
    {
      "inputs": [
        {
          "internalType": "address",
          "name": "operator",
          "type": "address"
        },
        {
          "internalType": "uint256",
          "name": "tokenId",
          "type": "uint256"
        }
      ],
      "name": "ERC721InsufficientApproval",
      "type": "error"
    },
    {
      "inputs": [
        {
          "internalType": "address",
          "name": "approver",
          "type": "address"
        }
      ],
      "name": "ERC721InvalidApprover",
      "type": "error"
    },
    {
      "inputs": [
        {
          "internalType": "address",
          "name": "operator",
          "type": "address"
        }
      ],
      "name": "ERC721InvalidOperator",
      "type": "error"
    },
    {
      "inputs": [
        {
          "internalType": "address",
          "name": "owner",
          "type": "address"
        }
      ],
      "name": "ERC721InvalidOwner",
      "type": "error"
    },
    {
      "inputs": [
        {
          "internalType": "address",
          "name": "receiver",
          "type": "address"
        }
      ],
      "name": "ERC721InvalidReceiver",
      "type": "error"
    },
    {
      "inputs": [
        {
          "internalType": "address",
          "name": "sender",
          "type": "address"
        }
      ],
      "name": "ERC721InvalidSender",
      "type": "error"
    },
    {
      "inputs": [
        {
          "internalType": "uint256",
          "name": "tokenId",
          "type": "uint256"
        }
      ],
      "name": "ERC721NonexistentToken",
      "type": "error"
    },
    {
      "inputs": [
        {
          "internalType": "address",
          "name": "owner",
          "type": "address"
        },
        {
          "internalType": "uint256",
          "name": "index",
          "type": "uint256"
        }
      ],
      "name": "OutOfBoundsIndex",
      "type": "error"
    },
    {
      "inputs": [
        {
          "internalType": "address",
          "name": "owner",
          "type": "address"
        }
      ],
      "name": "OwnableInvalidOwner",
      "type": "error"
    },
    {
      "inputs": [
        {
          "internalType": "address",
          "name": "account",
          "type": "address"
        }
      ],
      "name": "OwnableUnauthorizedAccount",
      "type": "error"
    },
    {
      "inputs": [],
      "name": "ReentrancyGuardReentrantCall",
      "type": "error"
    },
    {
      "inputs": [
        {
          "internalType": "uint256",
          "name": "tokenId",
          "type": "uint256"
        }
      ],
      "name": "TokenAlreadyTransferred",
      "type": "error"
    },
    {
      "anonymous": false,
      "inputs": [
        {
          "indexed": false,
          "internalType": "contract IHero",
          "name": "tokenContract",
          "type": "address"
        }
      ],
      "name": "HeroContractUpdated",
      "type": "event"
    },
    {
      "anonymous": false,
      "inputs": [
        {
          "indexed": true,
          "internalType": "address",
          "name": "previousOwner",
          "type": "address"
        },
        {
          "indexed": true,
          "internalType": "address",
          "name": "newOwner",
          "type": "address"
        }
      ],
      "name": "OwnershipTransferred",
      "type": "event"
    },
    {
      "anonymous": false,
      "inputs": [
        {
          "indexed": false,
          "internalType": "contract IERC20Mintable",
          "name": "rewardToken",
          "type": "address"
        }
      ],
      "name": "RewardTokenUpdated",
      "type": "event"
    },
    {
      "inputs": [
        {
          "internalType": "address",
          "name": "owner",
          "type": "address"
        }
      ],
      "name": "balanceOf",
      "outputs": [
        {
          "internalType": "uint256",
          "name": "",
          "type": "uint256"
        }
      ],
      "stateMutability": "view",
      "type": "function"
    },
    {
      "inputs": [],
      "name": "heroContract",
      "outputs": [
        {
          "internalType": "contract IHero",
          "name": "",
          "type": "address"
        }
      ],
      "stateMutability": "view",
      "type": "function"
    },
    {
      "inputs": [
        {
          "internalType": "uint256",
          "name": "tokenId",
          "type": "uint256"
        }
      ],
      "name": "leave",
      "outputs": [],
      "stateMutability": "nonpayable",
      "type": "function"
    },
    {
      "inputs": [
        {
          "internalType": "address",
          "name": "operator",
          "type": "address"
        },
        {
          "internalType": "address",
          "name": "from",
          "type": "address"
        },
        {
          "internalType": "uint256",
          "name": "tokenId",
          "type": "uint256"
        },
        {
          "internalType": "bytes",
          "name": "data",
          "type": "bytes"
        }
      ],
      "name": "onERC721Received",
      "outputs": [
        {
          "internalType": "bytes4",
          "name": "",
          "type": "bytes4"
        }
      ],
      "stateMutability": "nonpayable",
      "type": "function"
    },
    {
      "inputs": [],
      "name": "owner",
      "outputs": [
        {
          "internalType": "address",
          "name": "",
          "type": "address"
        }
      ],
      "stateMutability": "view",
      "type": "function"
    },
    {
      "inputs": [
        {
          "internalType": "uint256",
          "name": "tokenId",
          "type": "uint256"
        }
      ],
      "name": "ownerOf",
      "outputs": [
        {
          "internalType": "address",
          "name": "",
          "type": "address"
        }
      ],
      "stateMutability": "view",
      "type": "function"
    },
    {
      "inputs": [],
      "name": "renounceOwnership",
      "outputs": [],
      "stateMutability": "nonpayable",
      "type": "function"
    },
    {
      "inputs": [
        {
          "internalType": "contract IHero",
          "name": "_heroContract",
          "type": "address"
        }
      ],
      "name": "setHeroContract",
      "outputs": [],
      "stateMutability": "nonpayable",
      "type": "function"
    },
    {
      "inputs": [
        {
          "internalType": "contract IERC20Mintable",
          "name": "rewardToken",
          "type": "address"
        }
      ],
      "name": "setRewardToken",
      "outputs": [],
      "stateMutability": "nonpayable",
      "type": "function"
    },
    {
      "inputs": [
        {
          "internalType": "uint256",
          "name": "tokenId",
          "type": "uint256"
        }
      ],
      "name": "stakedGold",
      "outputs": [
        {
          "internalType": "uint256",
          "name": "",
          "type": "uint256"
        }
      ],
      "stateMutability": "view",
      "type": "function"
    },
    {
      "inputs": [
        {
          "internalType": "address",
          "name": "owner",
          "type": "address"
        },
        {
          "internalType": "uint256",
          "name": "index",
          "type": "uint256"
        }
      ],
      "name": "tokenOfOwnerByIndex",
      "outputs": [
        {
          "internalType": "uint256",
          "name": "",
          "type": "uint256"
        }
      ],
      "stateMutability": "view",
      "type": "function"
    },
    {
      "inputs": [
        {
          "internalType": "address",
          "name": "newOwner",
          "type": "address"
        }
      ],
      "name": "transferOwnership",
      "outputs": [],
      "stateMutability": "nonpayable",
      "type": "function"
    }
  ],
  "bytecode": "0x608080604052346100885733156100725760008054336001600160a01b03198216811783556040519290916001600160a01b0316907f8be0079c531659141344cd1fd0a4f28419497f9722a3daafe3b4186f6b6457e09080a3600180556509184e72a000600955610f6b908161008e8239f35b631e4fbdf760e01b815260006004820152602490fd5b600080fdfe6080604081815260048036101561001557600080fd5b600092833560e01c9081630daf999a14610d1d57508063150b7a0214610ab55780632f745c5914610a02578063543995881461071e5780636352211e146106e157806367dfd4c9146103c357806370a0823114610396578063715018a6146103145780638aee81271461025d5780638da5cb5b14610226578063d2ac0f59146101715763f2fde38b146100a757600080fd5b3461016d57602060031936011261016d576100c0610d4f565b906100c9610ea9565b73ffffffffffffffffffffffffffffffffffffffff80921692831561013e575050600054827fffffffffffffffffffffffff0000000000000000000000000000000000000000821617600055167f8be0079c531659141344cd1fd0a4f28419497f9722a3daafe3b4186f6b6457e0600080a380f35b908460249251917f1e4fbdf7000000000000000000000000000000000000000000000000000000008352820152fd5b8280fd5b503461016d57602060031936011261016d57359073ffffffffffffffffffffffffffffffffffffffff808316809303610222576101ac610ea9565b8215159081610213575b501561016d57816020917f076d83f0f8db9c1b6dec9be97da552ed610968f7f936041c01d0fcf01cdb6626937fffffffffffffffffffffffff0000000000000000000000000000000000000000600254161760025551908152a180f35b905060025416821415386101b6565b8380fd5b50503461025957816003193601126102595773ffffffffffffffffffffffffffffffffffffffff60209254169051908152f35b5080fd5b503461016d57602060031936011261016d573573ffffffffffffffffffffffffffffffffffffffff80821680920361022257610297610ea9565b818015159182610305575b50501561016d577fa5289ba11778999f4dfb9415023783188d42bbb5db0612cbfbe55999069612a0916020918460075492827fffffffffffffffffffffffff0000000000000000000000000000000000000000851617600755519216178152a180f35b600754161415905081386102a2565b833461039357806003193601126103935761032d610ea9565b600073ffffffffffffffffffffffffffffffffffffffff81547fffffffffffffffffffffffff000000000000000000000000000000000000000081168355167f8be0079c531659141344cd1fd0a4f28419497f9722a3daafe3b4186f6b6457e08280a380f35b80fd5b505034610259576020600319360112610259576020906103bc6103b7610d4f565b610e4b565b9051908152f35b503461016d5760208060031936011261022257813573ffffffffffffffffffffffffffffffffffffffff9283600754169382875260039485855287828882205416918851907f5439958800000000000000000000000000000000000000000000000000000000825286868301528782602481305afa9182156106d75783926106a8575b50803b1561016d576104a993838b518096819582947f40c10f190000000000000000000000000000000000000000000000000000000084528b84016020909392919373ffffffffffffffffffffffffffffffffffffffff60408201951681520152565b03925af1801561069e5761068b575b508287526008845286868120556104cd610efa565b82875284845280868820541632810361064f5750868160025416848252868652828883205416813b1561016d578291606483928b5194859384927f42842e0e000000000000000000000000000000000000000000000000000000008452308b85015260248401528a60448401525af180156106455761062d575b508390528484528086882054168752600684528587207fffffffffffffffffffffffffffffffffffffffffffffffffffffffffffffffff815401905582875284845285872054169061059882610e4b565b9183885260058552868820548381036105f8575b508388528787812055875283528486209086528252848481205584525281207fffffffffffffffffffffffff000000000000000000000000000000000000000081541690556001805580f35b818952828652878920848a52865287892054828a52838752888a20828b52875280898b205589526005865287892055386105ac565b61063690610d77565b610641578638610547565b8680fd5b88513d84823e3d90fd5b90506064928651927f64283d7b000000000000000000000000000000000000000000000000000000008452329084015260248301526044820152fd5b61069790979197610d77565b95386104b8565b87513d8a823e3d90fd5b9091508781813d83116106d0575b6106c08183610dba565b8101031261016d57519038610446565b503d6106b6565b8a513d85823e3d90fd5b503461016d57602060031936011261016d578160209373ffffffffffffffffffffffffffffffffffffffff92358152600385522054169051908152f35b503461016d576020928360031936011261039357813573ffffffffffffffffffffffffffffffffffffffff908160025416918551907f6352211e00000000000000000000000000000000000000000000000000000000825282868301528782602481875afa9182156109f85785926109bc575b501630148015906109aa575b61097b57808352600886528483205442039342851161094f5785519283927fbbaa7a57000000000000000000000000000000000000000000000000000000008452828401528260246101409586935afa93841561094457809461081b575b87876103bc6108128960ff60808b01511690610e09565b60095490610e09565b90919280945083813d831161093d575b6108358183610dba565b810103126103935785519384019184831067ffffffffffffffff8411176109115750506080610812936103bc959360ff93885261087181610dfb565b825261087e898201610dfb565b8983015261088d888201610dfb565b8883015261089d60608201610dfb565b60608301526108ad838201610dfb565b838301526108bd60a08201610dfb565b60a08301526108ce60c08201610dfb565b60c08301526108df60e08201610dfb565b60e08301526101006108f2818301610dfb565b90830152610904610120809201610dfb565b90820152938395506107fb565b9060416024927f4e487b7100000000000000000000000000000000000000000000000000000000835252fd5b503d61082b565b8651903d90823e3d90fd5b8360116024927f4e487b7100000000000000000000000000000000000000000000000000000000835252fd5b836024918651917f7e273289000000000000000000000000000000000000000000000000000000008352820152fd5b5080835260088652848320541561079d565b9091508781813d83116109f1575b6109d48183610dba565b810103126109ed575181811681036109ed579038610791565b8480fd5b503d6109ca565b87513d87823e3d90fd5b509134610393578160031936011261039357610a1c610d4f565b9260243590610a2a85610e4b565b821015610a63579083929173ffffffffffffffffffffffffffffffffffffffff6020961683528552828220908252845220549051908152f35b92517f8e4b74db00000000000000000000000000000000000000000000000000000000815273ffffffffffffffffffffffffffffffffffffffff90941692840192835260208301525081906040010390fd5b50913461039357608060031936011261039357610ad0610d4f565b50602490813573ffffffffffffffffffffffffffffffffffffffff9485821680830361022257604435926064359767ffffffffffffffff808a11610641573660238b0112156106415789850135908111610cf257885160209a610b5a601f84017fffffffffffffffffffffffffffffffffffffffffffffffffffffffffffffffe0168d0183610dba565b828252368a8483010111610cee57918b91818b8b95018483013701015284865260088952878620805461064157429055610b92610efa565b823203610cc057848652600389528786205416610c9157610bf590828652600689528786206001815401905584865260038952878620837fffffffffffffffffffffffff0000000000000000000000000000000000000000825416179055610e4b565b947fffffffffffffffffffffffffffffffffffffffffffffffffffffffffffffffff8601958611610c6757508352855283822083835285528382208190558152600584528290205560018055517f150b7a02000000000000000000000000000000000000000000000000000000008152f35b846011847f4e487b7100000000000000000000000000000000000000000000000000000000835252fd5b505091508351917f5008c073000000000000000000000000000000000000000000000000000000008352820152fd5b87517f5b08ba1800000000000000000000000000000000000000000000000000000000815232818601528790fd5b8880fd5b87876041877f4e487b7100000000000000000000000000000000000000000000000000000000835252fd5b84903461025957816003193601126102595760209073ffffffffffffffffffffffffffffffffffffffff600254168152f35b6004359073ffffffffffffffffffffffffffffffffffffffff82168203610d7257565b600080fd5b67ffffffffffffffff8111610d8b57604052565b7f4e487b7100000000000000000000000000000000000000000000000000000000600052604160045260246000fd5b90601f7fffffffffffffffffffffffffffffffffffffffffffffffffffffffffffffffe0910116810190811067ffffffffffffffff821117610d8b57604052565b519060ff82168203610d7257565b81810292918115918404141715610e1c57565b7f4e487b7100000000000000000000000000000000000000000000000000000000600052601160045260246000fd5b73ffffffffffffffffffffffffffffffffffffffff168015610e7857600052600660205260406000205490565b60246040517f89c62b6400000000000000000000000000000000000000000000000000000000815260006004820152fd5b73ffffffffffffffffffffffffffffffffffffffff600054163303610eca57565b60246040517f118cdaa7000000000000000000000000000000000000000000000000000000008152336004820152fd5b600260015414610f0b576002600155565b60046040517f3ee5aeb5000000000000000000000000000000000000000000000000000000008152fdfea26469706673582212204b5d76db551b0a38362bf282176eda09f9fe6ff936d2b5b30c016a3cc3673d6264736f6c63430008180033",
  "linkReferences": {},
  "deployedLinkReferences": {}
}